{
  "contractName": "MyNFTs",
  "abi": [
    {
      "inputs": [],
      "stateMutability": "nonpayable",
      "type": "constructor"
    },
    {
      "anonymous": false,
      "inputs": [
        {
          "indexed": true,
          "internalType": "address",
          "name": "owner",
          "type": "address"
        },
        {
          "indexed": true,
          "internalType": "address",
          "name": "approved",
          "type": "address"
        },
        {
          "indexed": true,
          "internalType": "uint256",
          "name": "tokenId",
          "type": "uint256"
        }
      ],
      "name": "Approval",
      "type": "event"
    },
    {
      "anonymous": false,
      "inputs": [
        {
          "indexed": true,
          "internalType": "address",
          "name": "owner",
          "type": "address"
        },
        {
          "indexed": true,
          "internalType": "address",
          "name": "operator",
          "type": "address"
        },
        {
          "indexed": false,
          "internalType": "bool",
          "name": "approved",
          "type": "bool"
        }
      ],
      "name": "ApprovalForAll",
      "type": "event"
    },
    {
      "anonymous": false,
      "inputs": [
        {
          "indexed": true,
          "internalType": "address",
          "name": "previousOwner",
          "type": "address"
        },
        {
          "indexed": true,
          "internalType": "address",
          "name": "newOwner",
          "type": "address"
        }
      ],
      "name": "OwnershipTransferred",
      "type": "event"
    },
    {
      "anonymous": false,
      "inputs": [
        {
          "indexed": true,
          "internalType": "address",
          "name": "from",
          "type": "address"
        },
        {
          "indexed": true,
          "internalType": "address",
          "name": "to",
          "type": "address"
        },
        {
          "indexed": true,
          "internalType": "uint256",
          "name": "tokenId",
          "type": "uint256"
        }
      ],
      "name": "Transfer",
      "type": "event"
    },
    {
      "inputs": [
        {
          "internalType": "address",
          "name": "to",
          "type": "address"
        },
        {
          "internalType": "uint256",
          "name": "tokenId",
          "type": "uint256"
        }
      ],
      "name": "approve",
      "outputs": [],
      "stateMutability": "nonpayable",
      "type": "function"
    },
    {
      "inputs": [
        {
          "internalType": "address",
          "name": "owner",
          "type": "address"
        }
      ],
      "name": "balanceOf",
      "outputs": [
        {
          "internalType": "uint256",
          "name": "",
          "type": "uint256"
        }
      ],
      "stateMutability": "view",
      "type": "function",
      "constant": true
    },
    {
      "inputs": [
        {
          "internalType": "uint256",
          "name": "tokenId",
          "type": "uint256"
        }
      ],
      "name": "getApproved",
      "outputs": [
        {
          "internalType": "address",
          "name": "",
          "type": "address"
        }
      ],
      "stateMutability": "view",
      "type": "function",
      "constant": true
    },
    {
      "inputs": [
        {
          "internalType": "address",
          "name": "owner",
          "type": "address"
        },
        {
          "internalType": "address",
          "name": "operator",
          "type": "address"
        }
      ],
      "name": "isApprovedForAll",
      "outputs": [
        {
          "internalType": "bool",
          "name": "",
          "type": "bool"
        }
      ],
      "stateMutability": "view",
      "type": "function",
      "constant": true
    },
    {
      "inputs": [],
      "name": "name",
      "outputs": [
        {
          "internalType": "string",
          "name": "",
          "type": "string"
        }
      ],
      "stateMutability": "view",
      "type": "function",
      "constant": true
    },
    {
      "inputs": [],
      "name": "owner",
      "outputs": [
        {
          "internalType": "address",
          "name": "",
          "type": "address"
        }
      ],
      "stateMutability": "view",
      "type": "function",
      "constant": true
    },
    {
      "inputs": [
        {
          "internalType": "uint256",
          "name": "tokenId",
          "type": "uint256"
        }
      ],
      "name": "ownerOf",
      "outputs": [
        {
          "internalType": "address",
          "name": "",
          "type": "address"
        }
      ],
      "stateMutability": "view",
      "type": "function",
      "constant": true
    },
    {
      "inputs": [],
      "name": "renounceOwnership",
      "outputs": [],
      "stateMutability": "nonpayable",
      "type": "function"
    },
    {
      "inputs": [
        {
          "internalType": "address",
          "name": "from",
          "type": "address"
        },
        {
          "internalType": "address",
          "name": "to",
          "type": "address"
        },
        {
          "internalType": "uint256",
          "name": "tokenId",
          "type": "uint256"
        }
      ],
      "name": "safeTransferFrom",
      "outputs": [],
      "stateMutability": "nonpayable",
      "type": "function"
    },
    {
      "inputs": [
        {
          "internalType": "address",
          "name": "from",
          "type": "address"
        },
        {
          "internalType": "address",
          "name": "to",
          "type": "address"
        },
        {
          "internalType": "uint256",
          "name": "tokenId",
          "type": "uint256"
        },
        {
          "internalType": "bytes",
          "name": "_data",
          "type": "bytes"
        }
      ],
      "name": "safeTransferFrom",
      "outputs": [],
      "stateMutability": "nonpayable",
      "type": "function"
    },
    {
      "inputs": [
        {
          "internalType": "address",
          "name": "operator",
          "type": "address"
        },
        {
          "internalType": "bool",
          "name": "approved",
          "type": "bool"
        }
      ],
      "name": "setApprovalForAll",
      "outputs": [],
      "stateMutability": "nonpayable",
      "type": "function"
    },
    {
      "inputs": [
        {
          "internalType": "bytes4",
          "name": "interfaceId",
          "type": "bytes4"
        }
      ],
      "name": "supportsInterface",
      "outputs": [
        {
          "internalType": "bool",
          "name": "",
          "type": "bool"
        }
      ],
      "stateMutability": "view",
      "type": "function",
      "constant": true
    },
    {
      "inputs": [],
      "name": "symbol",
      "outputs": [
        {
          "internalType": "string",
          "name": "",
          "type": "string"
        }
      ],
      "stateMutability": "view",
      "type": "function",
      "constant": true
    },
    {
      "inputs": [
        {
          "internalType": "uint256",
          "name": "tokenId",
          "type": "uint256"
        }
      ],
      "name": "tokenURI",
      "outputs": [
        {
          "internalType": "string",
          "name": "",
          "type": "string"
        }
      ],
      "stateMutability": "view",
      "type": "function",
      "constant": true
    },
    {
      "inputs": [
        {
          "internalType": "address",
          "name": "from",
          "type": "address"
        },
        {
          "internalType": "address",
          "name": "to",
          "type": "address"
        },
        {
          "internalType": "uint256",
          "name": "tokenId",
          "type": "uint256"
        }
      ],
      "name": "transferFrom",
      "outputs": [],
      "stateMutability": "nonpayable",
      "type": "function"
    },
    {
      "inputs": [
        {
          "internalType": "address",
          "name": "newOwner",
          "type": "address"
        }
      ],
      "name": "transferOwnership",
      "outputs": [],
      "stateMutability": "nonpayable",
      "type": "function"
    },
    {
      "inputs": [
        {
          "internalType": "string",
          "name": "tokenURI",
          "type": "string"
        }
      ],
      "name": "mintNFT",
      "outputs": [
        {
          "internalType": "uint256",
          "name": "",
          "type": "uint256"
        }
      ],
      "stateMutability": "nonpayable",
      "type": "function"
    }
  ],
  "bytecode": "0x60806040523480156200001157600080fd5b506040518060400160405280600681526020017f4d794e46547300000000000000000000000000000000000000000000000000008152506040518060400160405280600481526020017f4d4e465400000000000000000000000000000000000000000000000000000000815250816000908051906020019062000096929190620001a6565b508060019080519060200190620000af929190620001a6565b505050620000d2620000c6620000d860201b60201c565b620000e060201b60201c565b620002bb565b600033905090565b6000600760009054906101000a900473ffffffffffffffffffffffffffffffffffffffff16905081600760006101000a81548173ffffffffffffffffffffffffffffffffffffffff021916908373ffffffffffffffffffffffffffffffffffffffff1602179055508173ffffffffffffffffffffffffffffffffffffffff168173ffffffffffffffffffffffffffffffffffffffff167f8be0079c531659141344cd1fd0a4f28419497f9722a3daafe3b4186f6b6457e060405160405180910390a35050565b828054620001b49062000256565b90600052602060002090601f016020900481019282620001d8576000855562000224565b82601f10620001f357805160ff191683800117855562000224565b8280016001018555821562000224579182015b828111156200022357825182559160200191906001019062000206565b5b50905062000233919062000237565b5090565b5b808211156200025257600081600090555060010162000238565b5090565b600060028204905060018216806200026f57607f821691505b602082108114156200028657620002856200028c565b5b50919050565b7f4e487b7100000000000000000000000000000000000000000000000000000000600052602260045260246000fd5b612fe080620002cb6000396000f3fe608060405234801561001057600080fd5b506004361061010b5760003560e01c8063715018a6116100a2578063b88d4fde11610071578063b88d4fde146102a4578063c87b56dd146102c0578063e985e9c5146102f0578063f2fde38b14610320578063fb37e8831461033c5761010b565b8063715018a6146102425780638da5cb5b1461024c57806395d89b411461026a578063a22cb465146102885761010b565b806323b872dd116100de57806323b872dd146101aa57806342842e0e146101c65780636352211e146101e257806370a08231146102125761010b565b806301ffc9a71461011057806306fdde0314610140578063081812fc1461015e578063095ea7b31461018e575b600080fd5b61012a60048036038101906101259190611ef7565b61036c565b6040516101379190612398565b60405180910390f35b61014861044e565b60405161015591906123b3565b60405180910390f35b61017860048036038101906101739190611f9a565b6104e0565b6040516101859190612331565b60405180910390f35b6101a860048036038101906101a39190611eb7565b610565565b005b6101c460048036038101906101bf9190611da1565b61067d565b005b6101e060048036038101906101db9190611da1565b6106dd565b005b6101fc60048036038101906101f79190611f9a565b6106fd565b6040516102099190612331565b60405180910390f35b61022c60048036038101906102279190611d34565b6107af565b6040516102399190612615565b60405180910390f35b61024a610867565b005b6102546108ef565b6040516102619190612331565b60405180910390f35b610272610919565b60405161027f91906123b3565b60405180910390f35b6102a2600480360381019061029d9190611e77565b6109ab565b005b6102be60048036038101906102b99190611df4565b6109c1565b005b6102da60048036038101906102d59190611f9a565b610a23565b6040516102e791906123b3565b60405180910390f35b61030a60048036038101906103059190611d61565b610b75565b6040516103179190612398565b60405180910390f35b61033a60048036038101906103359190611d34565b610c09565b005b61035660048036038101906103519190611f51565b610d01565b6040516103639190612615565b60405180910390f35b60007f80ac58cd000000000000000000000000000000000000000000000000000000007bffffffffffffffffffffffffffffffffffffffffffffffffffffffff1916827bffffffffffffffffffffffffffffffffffffffffffffffffffffffff1916148061043757507f5b5e139f000000000000000000000000000000000000000000000000000000007bffffffffffffffffffffffffffffffffffffffffffffffffffffffff1916827bffffffffffffffffffffffffffffffffffffffffffffffffffffffff1916145b80610447575061044682610db4565b5b9050919050565b60606000805461045d9061286b565b80601f01602080910402602001604051908101604052809291908181526020018280546104899061286b565b80156104d65780601f106104ab576101008083540402835291602001916104d6565b820191906000526020600020905b8154815290600101906020018083116104b957829003601f168201915b5050505050905090565b60006104eb82610e1e565b61052a576040517f08c379a000000000000000000000000000000000000000000000000000000000815260040161052190612555565b60405180910390fd5b6004600083815260200190815260200160002060009054906101000a900473ffffffffffffffffffffffffffffffffffffffff169050919050565b6000610570826106fd565b90508073ffffffffffffffffffffffffffffffffffffffff168373ffffffffffffffffffffffffffffffffffffffff1614156105e1576040517f08c379a00000000000000000000000000000000000000000000000000000000081526004016105d8906125d5565b60405180910390fd5b8073ffffffffffffffffffffffffffffffffffffffff16610600610e8a565b73ffffffffffffffffffffffffffffffffffffffff16148061062f575061062e81610629610e8a565b610b75565b5b61066e576040517f08c379a000000000000000000000000000000000000000000000000000000000815260040161066590612495565b60405180910390fd5b6106788383610e92565b505050565b61068e610688610e8a565b82610f4b565b6106cd576040517f08c379a00000000000000000000000000000000000000000000000000000000081526004016106c4906125f5565b60405180910390fd5b6106d8838383611029565b505050565b6106f8838383604051806020016040528060008152506109c1565b505050565b6000806002600084815260200190815260200160002060009054906101000a900473ffffffffffffffffffffffffffffffffffffffff169050600073ffffffffffffffffffffffffffffffffffffffff168173ffffffffffffffffffffffffffffffffffffffff1614156107a6576040517f08c379a000000000000000000000000000000000000000000000000000000000815260040161079d906124d5565b60405180910390fd5b80915050919050565b60008073ffffffffffffffffffffffffffffffffffffffff168273ffffffffffffffffffffffffffffffffffffffff161415610820576040517f08c379a0000000000000000000000000000000000000000000000000000000008152600401610817906124b5565b60405180910390fd5b600360008373ffffffffffffffffffffffffffffffffffffffff1673ffffffffffffffffffffffffffffffffffffffff168152602001908152602001600020549050919050565b61086f610e8a565b73ffffffffffffffffffffffffffffffffffffffff1661088d6108ef565b73ffffffffffffffffffffffffffffffffffffffff16146108e3576040517f08c379a00000000000000000000000000000000000000000000000000000000081526004016108da90612575565b60405180910390fd5b6108ed6000611285565b565b6000600760009054906101000a900473ffffffffffffffffffffffffffffffffffffffff16905090565b6060600180546109289061286b565b80601f01602080910402602001604051908101604052809291908181526020018280546109549061286b565b80156109a15780601f10610976576101008083540402835291602001916109a1565b820191906000526020600020905b81548152906001019060200180831161098457829003601f168201915b5050505050905090565b6109bd6109b6610e8a565b838361134b565b5050565b6109d26109cc610e8a565b83610f4b565b610a11576040517f08c379a0000000000000000000000000000000000000000000000000000000008152600401610a08906125f5565b60405180910390fd5b610a1d848484846114b8565b50505050565b6060610a2e82610e1e565b610a6d576040517f08c379a0000000000000000000000000000000000000000000000000000000008152600401610a6490612535565b60405180910390fd5b6000600660008481526020019081526020016000208054610a8d9061286b565b80601f0160208091040260200160405190810160405280929190818152602001828054610ab99061286b565b8015610b065780601f10610adb57610100808354040283529160200191610b06565b820191906000526020600020905b815481529060010190602001808311610ae957829003601f168201915b505050505090506000610b17611514565b9050600081511415610b2d578192505050610b70565b600082511115610b62578082604051602001610b4a92919061230d565b60405160208183030381529060405292505050610b70565b610b6b8461152b565b925050505b919050565b6000600560008473ffffffffffffffffffffffffffffffffffffffff1673ffffffffffffffffffffffffffffffffffffffff16815260200190815260200160002060008373ffffffffffffffffffffffffffffffffffffffff1673ffffffffffffffffffffffffffffffffffffffff16815260200190815260200160002060009054906101000a900460ff16905092915050565b610c11610e8a565b73ffffffffffffffffffffffffffffffffffffffff16610c2f6108ef565b73ffffffffffffffffffffffffffffffffffffffff1614610c85576040517f08c379a0000000000000000000000000000000000000000000000000000000008152600401610c7c90612575565b60405180910390fd5b600073ffffffffffffffffffffffffffffffffffffffff168173ffffffffffffffffffffffffffffffffffffffff161415610cf5576040517f08c379a0000000000000000000000000000000000000000000000000000000008152600401610cec906123f5565b60405180910390fd5b610cfe81611285565b50565b6000610d0b610e8a565b73ffffffffffffffffffffffffffffffffffffffff16610d296108ef565b73ffffffffffffffffffffffffffffffffffffffff1614610d7f576040517f08c379a0000000000000000000000000000000000000000000000000000000008152600401610d7690612575565b60405180910390fd5b610d8960086115d2565b6000610d9560086115e8565b9050610da133826115f6565b610dab81846117c4565b80915050919050565b60007f01ffc9a7000000000000000000000000000000000000000000000000000000007bffffffffffffffffffffffffffffffffffffffffffffffffffffffff1916827bffffffffffffffffffffffffffffffffffffffffffffffffffffffff1916149050919050565b60008073ffffffffffffffffffffffffffffffffffffffff166002600084815260200190815260200160002060009054906101000a900473ffffffffffffffffffffffffffffffffffffffff1673ffffffffffffffffffffffffffffffffffffffff1614159050919050565b600033905090565b816004600083815260200190815260200160002060006101000a81548173ffffffffffffffffffffffffffffffffffffffff021916908373ffffffffffffffffffffffffffffffffffffffff160217905550808273ffffffffffffffffffffffffffffffffffffffff16610f05836106fd565b73ffffffffffffffffffffffffffffffffffffffff167f8c5be1e5ebec7d5bd14f71427d1e84f3dd0314c0f7b2291e5b200ac8c7c3b92560405160405180910390a45050565b6000610f5682610e1e565b610f95576040517f08c379a0000000000000000000000000000000000000000000000000000000008152600401610f8c90612475565b60405180910390fd5b6000610fa0836106fd565b90508073ffffffffffffffffffffffffffffffffffffffff168473ffffffffffffffffffffffffffffffffffffffff16148061100f57508373ffffffffffffffffffffffffffffffffffffffff16610ff7846104e0565b73ffffffffffffffffffffffffffffffffffffffff16145b80611020575061101f8185610b75565b5b91505092915050565b8273ffffffffffffffffffffffffffffffffffffffff16611049826106fd565b73ffffffffffffffffffffffffffffffffffffffff161461109f576040517f08c379a000000000000000000000000000000000000000000000000000000000815260040161109690612595565b60405180910390fd5b600073ffffffffffffffffffffffffffffffffffffffff168273ffffffffffffffffffffffffffffffffffffffff16141561110f576040517f08c379a000000000000000000000000000000000000000000000000000000000815260040161110690612435565b60405180910390fd5b61111a838383611838565b611125600082610e92565b6001600360008573ffffffffffffffffffffffffffffffffffffffff1673ffffffffffffffffffffffffffffffffffffffff16815260200190815260200160002060008282546111759190612781565b925050819055506001600360008473ffffffffffffffffffffffffffffffffffffffff1673ffffffffffffffffffffffffffffffffffffffff16815260200190815260200160002060008282546111cc91906126fa565b92505081905550816002600083815260200190815260200160002060006101000a81548173ffffffffffffffffffffffffffffffffffffffff021916908373ffffffffffffffffffffffffffffffffffffffff160217905550808273ffffffffffffffffffffffffffffffffffffffff168473ffffffffffffffffffffffffffffffffffffffff167fddf252ad1be2c89b69c2b068fc378daa952ba7f163c4a11628f55a4df523b3ef60405160405180910390a4505050565b6000600760009054906101000a900473ffffffffffffffffffffffffffffffffffffffff16905081600760006101000a81548173ffffffffffffffffffffffffffffffffffffffff021916908373ffffffffffffffffffffffffffffffffffffffff1602179055508173ffffffffffffffffffffffffffffffffffffffff168173ffffffffffffffffffffffffffffffffffffffff167f8be0079c531659141344cd1fd0a4f28419497f9722a3daafe3b4186f6b6457e060405160405180910390a35050565b8173ffffffffffffffffffffffffffffffffffffffff168373ffffffffffffffffffffffffffffffffffffffff1614156113ba576040517f08c379a00000000000000000000000000000000000000000000000000000000081526004016113b190612455565b60405180910390fd5b80600560008573ffffffffffffffffffffffffffffffffffffffff1673ffffffffffffffffffffffffffffffffffffffff16815260200190815260200160002060008473ffffffffffffffffffffffffffffffffffffffff1673ffffffffffffffffffffffffffffffffffffffff16815260200190815260200160002060006101000a81548160ff0219169083151502179055508173ffffffffffffffffffffffffffffffffffffffff168373ffffffffffffffffffffffffffffffffffffffff167f17307eab39ab6107e8899845ad3d59bd9653f200f220920489ca2b5937696c31836040516114ab9190612398565b60405180910390a3505050565b6114c3848484611029565b6114cf8484848461183d565b61150e576040517f08c379a0000000000000000000000000000000000000000000000000000000008152600401611505906123d5565b60405180910390fd5b50505050565b606060405180602001604052806000815250905090565b606061153682610e1e565b611575576040517f08c379a000000000000000000000000000000000000000000000000000000000815260040161156c906125b5565b60405180910390fd5b600061157f611514565b9050600081511161159f57604051806020016040528060008152506115ca565b806115a9846119d4565b6040516020016115ba92919061230d565b6040516020818303038152906040525b915050919050565b6001816000016000828254019250508190555050565b600081600001549050919050565b600073ffffffffffffffffffffffffffffffffffffffff168273ffffffffffffffffffffffffffffffffffffffff161415611666576040517f08c379a000000000000000000000000000000000000000000000000000000000815260040161165d90612515565b60405180910390fd5b61166f81610e1e565b156116af576040517f08c379a00000000000000000000000000000000000000000000000000000000081526004016116a690612415565b60405180910390fd5b6116bb60008383611838565b6001600360008473ffffffffffffffffffffffffffffffffffffffff1673ffffffffffffffffffffffffffffffffffffffff168152602001908152602001600020600082825461170b91906126fa565b92505081905550816002600083815260200190815260200160002060006101000a81548173ffffffffffffffffffffffffffffffffffffffff021916908373ffffffffffffffffffffffffffffffffffffffff160217905550808273ffffffffffffffffffffffffffffffffffffffff16600073ffffffffffffffffffffffffffffffffffffffff167fddf252ad1be2c89b69c2b068fc378daa952ba7f163c4a11628f55a4df523b3ef60405160405180910390a45050565b6117cd82610e1e565b61180c576040517f08c379a0000000000000000000000000000000000000000000000000000000008152600401611803906124f5565b60405180910390fd5b80600660008481526020019081526020016000209080519060200190611833929190611b48565b505050565b505050565b600061185e8473ffffffffffffffffffffffffffffffffffffffff16611b35565b156119c7578373ffffffffffffffffffffffffffffffffffffffff1663150b7a02611887610e8a565b8786866040518563ffffffff1660e01b81526004016118a9949392919061234c565b602060405180830381600087803b1580156118c357600080fd5b505af19250505080156118f457506040513d601f19601f820116820180604052508101906118f19190611f24565b60015b611977573d8060008114611924576040519150601f19603f3d011682016040523d82523d6000602084013e611929565b606091505b5060008151141561196f576040517f08c379a0000000000000000000000000000000000000000000000000000000008152600401611966906123d5565b60405180910390fd5b805181602001fd5b63150b7a0260e01b7bffffffffffffffffffffffffffffffffffffffffffffffffffffffff1916817bffffffffffffffffffffffffffffffffffffffffffffffffffffffff1916149150506119cc565b600190505b949350505050565b60606000821415611a1c576040518060400160405280600181526020017f30000000000000000000000000000000000000000000000000000000000000008152509050611b30565b600082905060005b60008214611a4e578080611a37906128ce565b915050600a82611a479190612750565b9150611a24565b60008167ffffffffffffffff811115611a6a57611a69612a04565b5b6040519080825280601f01601f191660200182016040528015611a9c5781602001600182028036833780820191505090505b5090505b60008514611b2957600182611ab59190612781565b9150600a85611ac49190612917565b6030611ad091906126fa565b60f81b818381518110611ae657611ae56129d5565b5b60200101907effffffffffffffffffffffffffffffffffffffffffffffffffffffffffffff1916908160001a905350600a85611b229190612750565b9450611aa0565b8093505050505b919050565b600080823b905060008111915050919050565b828054611b549061286b565b90600052602060002090601f016020900481019282611b765760008555611bbd565b82601f10611b8f57805160ff1916838001178555611bbd565b82800160010185558215611bbd579182015b82811115611bbc578251825591602001919060010190611ba1565b5b509050611bca9190611bce565b5090565b5b80821115611be7576000816000905550600101611bcf565b5090565b6000611bfe611bf984612655565b612630565b905082815260208101848484011115611c1a57611c19612a38565b5b611c25848285612829565b509392505050565b6000611c40611c3b84612686565b612630565b905082815260208101848484011115611c5c57611c5b612a38565b5b611c67848285612829565b509392505050565b600081359050611c7e81612f4e565b92915050565b600081359050611c9381612f65565b92915050565b600081359050611ca881612f7c565b92915050565b600081519050611cbd81612f7c565b92915050565b600082601f830112611cd857611cd7612a33565b5b8135611ce8848260208601611beb565b91505092915050565b600082601f830112611d0657611d05612a33565b5b8135611d16848260208601611c2d565b91505092915050565b600081359050611d2e81612f93565b92915050565b600060208284031215611d4a57611d49612a42565b5b6000611d5884828501611c6f565b91505092915050565b60008060408385031215611d7857611d77612a42565b5b6000611d8685828601611c6f565b9250506020611d9785828601611c6f565b9150509250929050565b600080600060608486031215611dba57611db9612a42565b5b6000611dc886828701611c6f565b9350506020611dd986828701611c6f565b9250506040611dea86828701611d1f565b9150509250925092565b60008060008060808587031215611e0e57611e0d612a42565b5b6000611e1c87828801611c6f565b9450506020611e2d87828801611c6f565b9350506040611e3e87828801611d1f565b925050606085013567ffffffffffffffff811115611e5f57611e5e612a3d565b5b611e6b87828801611cc3565b91505092959194509250565b60008060408385031215611e8e57611e8d612a42565b5b6000611e9c85828601611c6f565b9250506020611ead85828601611c84565b9150509250929050565b60008060408385031215611ece57611ecd612a42565b5b6000611edc85828601611c6f565b9250506020611eed85828601611d1f565b9150509250929050565b600060208284031215611f0d57611f0c612a42565b5b6000611f1b84828501611c99565b91505092915050565b600060208284031215611f3a57611f39612a42565b5b6000611f4884828501611cae565b91505092915050565b600060208284031215611f6757611f66612a42565b5b600082013567ffffffffffffffff811115611f8557611f84612a3d565b5b611f9184828501611cf1565b91505092915050565b600060208284031215611fb057611faf612a42565b5b6000611fbe84828501611d1f565b91505092915050565b611fd0816127b5565b82525050565b611fdf816127c7565b82525050565b6000611ff0826126b7565b611ffa81856126cd565b935061200a818560208601612838565b61201381612a47565b840191505092915050565b6000612029826126c2565b61203381856126de565b9350612043818560208601612838565b61204c81612a47565b840191505092915050565b6000612062826126c2565b61206c81856126ef565b935061207c818560208601612838565b80840191505092915050565b60006120956032836126de565b91506120a082612a58565b604082019050919050565b60006120b86026836126de565b91506120c382612aa7565b604082019050919050565b60006120db601c836126de565b91506120e682612af6565b602082019050919050565b60006120fe6024836126de565b915061210982612b1f565b604082019050919050565b60006121216019836126de565b915061212c82612b6e565b602082019050919050565b6000612144602c836126de565b915061214f82612b97565b604082019050919050565b60006121676038836126de565b915061217282612be6565b604082019050919050565b600061218a602a836126de565b915061219582612c35565b604082019050919050565b60006121ad6029836126de565b91506121b882612c84565b604082019050919050565b60006121d0602e836126de565b91506121db82612cd3565b604082019050919050565b60006121f36020836126de565b91506121fe82612d22565b602082019050919050565b60006122166031836126de565b915061222182612d4b565b604082019050919050565b6000612239602c836126de565b915061224482612d9a565b604082019050919050565b600061225c6020836126de565b915061226782612de9565b602082019050919050565b600061227f6029836126de565b915061228a82612e12565b604082019050919050565b60006122a2602f836126de565b91506122ad82612e61565b604082019050919050565b60006122c56021836126de565b91506122d082612eb0565b604082019050919050565b60006122e86031836126de565b91506122f382612eff565b604082019050919050565b6123078161281f565b82525050565b60006123198285612057565b91506123258284612057565b91508190509392505050565b60006020820190506123466000830184611fc7565b92915050565b60006080820190506123616000830187611fc7565b61236e6020830186611fc7565b61237b60408301856122fe565b818103606083015261238d8184611fe5565b905095945050505050565b60006020820190506123ad6000830184611fd6565b92915050565b600060208201905081810360008301526123cd818461201e565b905092915050565b600060208201905081810360008301526123ee81612088565b9050919050565b6000602082019050818103600083015261240e816120ab565b9050919050565b6000602082019050818103600083015261242e816120ce565b9050919050565b6000602082019050818103600083015261244e816120f1565b9050919050565b6000602082019050818103600083015261246e81612114565b9050919050565b6000602082019050818103600083015261248e81612137565b9050919050565b600060208201905081810360008301526124ae8161215a565b9050919050565b600060208201905081810360008301526124ce8161217d565b9050919050565b600060208201905081810360008301526124ee816121a0565b9050919050565b6000602082019050818103600083015261250e816121c3565b9050919050565b6000602082019050818103600083015261252e816121e6565b9050919050565b6000602082019050818103600083015261254e81612209565b9050919050565b6000602082019050818103600083015261256e8161222c565b9050919050565b6000602082019050818103600083015261258e8161224f565b9050919050565b600060208201905081810360008301526125ae81612272565b9050919050565b600060208201905081810360008301526125ce81612295565b9050919050565b600060208201905081810360008301526125ee816122b8565b9050919050565b6000602082019050818103600083015261260e816122db565b9050919050565b600060208201905061262a60008301846122fe565b92915050565b600061263a61264b565b9050612646828261289d565b919050565b6000604051905090565b600067ffffffffffffffff8211156126705761266f612a04565b5b61267982612a47565b9050602081019050919050565b600067ffffffffffffffff8211156126a1576126a0612a04565b5b6126aa82612a47565b9050602081019050919050565b600081519050919050565b600081519050919050565b600082825260208201905092915050565b600082825260208201905092915050565b600081905092915050565b60006127058261281f565b91506127108361281f565b9250827fffffffffffffffffffffffffffffffffffffffffffffffffffffffffffffffff0382111561274557612744612948565b5b828201905092915050565b600061275b8261281f565b91506127668361281f565b92508261277657612775612977565b5b828204905092915050565b600061278c8261281f565b91506127978361281f565b9250828210156127aa576127a9612948565b5b828203905092915050565b60006127c0826127ff565b9050919050565b60008115159050919050565b60007fffffffff0000000000000000000000000000000000000000000000000000000082169050919050565b600073ffffffffffffffffffffffffffffffffffffffff82169050919050565b6000819050919050565b82818337600083830152505050565b60005b8381101561285657808201518184015260208101905061283b565b83811115612865576000848401525b50505050565b6000600282049050600182168061288357607f821691505b60208210811415612897576128966129a6565b5b50919050565b6128a682612a47565b810181811067ffffffffffffffff821117156128c5576128c4612a04565b5b80604052505050565b60006128d98261281f565b91507fffffffffffffffffffffffffffffffffffffffffffffffffffffffffffffffff82141561290c5761290b612948565b5b600182019050919050565b60006129228261281f565b915061292d8361281f565b92508261293d5761293c612977565b5b828206905092915050565b7f4e487b7100000000000000000000000000000000000000000000000000000000600052601160045260246000fd5b7f4e487b7100000000000000000000000000000000000000000000000000000000600052601260045260246000fd5b7f4e487b7100000000000000000000000000000000000000000000000000000000600052602260045260246000fd5b7f4e487b7100000000000000000000000000000000000000000000000000000000600052603260045260246000fd5b7f4e487b7100000000000000000000000000000000000000000000000000000000600052604160045260246000fd5b600080fd5b600080fd5b600080fd5b600080fd5b6000601f19601f8301169050919050565b7f4552433732313a207472616e7366657220746f206e6f6e20455243373231526560008201527f63656976657220696d706c656d656e7465720000000000000000000000000000602082015250565b7f4f776e61626c653a206e6577206f776e657220697320746865207a65726f206160008201527f6464726573730000000000000000000000000000000000000000000000000000602082015250565b7f4552433732313a20746f6b656e20616c7265616479206d696e74656400000000600082015250565b7f4552433732313a207472616e7366657220746f20746865207a65726f2061646460008201527f7265737300000000000000000000000000000000000000000000000000000000602082015250565b7f4552433732313a20617070726f766520746f2063616c6c657200000000000000600082015250565b7f4552433732313a206f70657261746f7220717565727920666f72206e6f6e657860008201527f697374656e7420746f6b656e0000000000000000000000000000000000000000602082015250565b7f4552433732313a20617070726f76652063616c6c6572206973206e6f74206f7760008201527f6e6572206e6f7220617070726f76656420666f7220616c6c0000000000000000602082015250565b7f4552433732313a2062616c616e636520717565727920666f7220746865207a6560008201527f726f206164647265737300000000000000000000000000000000000000000000602082015250565b7f4552433732313a206f776e657220717565727920666f72206e6f6e657869737460008201527f656e7420746f6b656e0000000000000000000000000000000000000000000000602082015250565b7f45524337323155524953746f726167653a2055524920736574206f66206e6f6e60008201527f6578697374656e7420746f6b656e000000000000000000000000000000000000602082015250565b7f4552433732313a206d696e7420746f20746865207a65726f2061646472657373600082015250565b7f45524337323155524953746f726167653a2055524920717565727920666f722060008201527f6e6f6e6578697374656e7420746f6b656e000000000000000000000000000000602082015250565b7f4552433732313a20617070726f76656420717565727920666f72206e6f6e657860008201527f697374656e7420746f6b656e0000000000000000000000000000000000000000602082015250565b7f4f776e61626c653a2063616c6c6572206973206e6f7420746865206f776e6572600082015250565b7f4552433732313a207472616e73666572206f6620746f6b656e2074686174206960008201527f73206e6f74206f776e0000000000000000000000000000000000000000000000602082015250565b7f4552433732314d657461646174613a2055524920717565727920666f72206e6f60008201527f6e6578697374656e7420746f6b656e0000000000000000000000000000000000602082015250565b7f4552433732313a20617070726f76616c20746f2063757272656e74206f776e6560008201527f7200000000000000000000000000000000000000000000000000000000000000602082015250565b7f4552433732313a207472616e736665722063616c6c6572206973206e6f74206f60008201527f776e6572206e6f7220617070726f766564000000000000000000000000000000602082015250565b612f57816127b5565b8114612f6257600080fd5b50565b612f6e816127c7565b8114612f7957600080fd5b50565b612f85816127d3565b8114612f9057600080fd5b50565b612f9c8161281f565b8114612fa757600080fd5b5056fea26469706673582212208a8e904e169b7593117bf542176f5f0a361ea46b42b70f35e917f090e83e63ff64736f6c63430008070033",
  "immutableReferences": {},
  "source": "//Contract based on [https://docs.openzeppelin.com/contracts/3.x/erc721](https://docs.openzeppelin.com/contracts/3.x/erc721)\n// SPDX-License-Identifier: MIT\npragma solidity ^0.8.7;\n\nimport '@openzeppelin/contracts/token/ERC721/ERC721.sol';\nimport '@openzeppelin/contracts/utils/Counters.sol';\nimport '@openzeppelin/contracts/access/Ownable.sol';\nimport '@openzeppelin/contracts/token/ERC721/extensions/ERC721URIStorage.sol';\n\ncontract MyNFTs is ERC721URIStorage, Ownable {\n  using Counters for Counters.Counter;\n  Counters.Counter private _tokenIds;\n\n  constructor() public ERC721('MyNFTs', 'MNFT') {}\n\n  function mintNFT(string memory tokenURI) public onlyOwner returns (uint256) {\n    _tokenIds.increment();\n\n    uint256 newItemId = _tokenIds.current();\n    _mint(msg.sender, newItemId);\n    _setTokenURI(newItemId, tokenURI);\n\n    return newItemId;\n  }\n}\n",
  "sourcePath": "/Users/brianson/Downloads/ERC721/contracts/MyNFTs.sol",
  "compiler": {
    "name": "solc",
    "version": "0.8.7+commit.e28d00a7.Emscripten.clang"
  },
  "schemaVersion": "3.4.3",
  "updatedAt": "2021-12-13T05:25:50.421Z",
  "networkType": "ethereum",
  "devdoc": {
    "kind": "dev",
    "methods": {
      "approve(address,uint256)": {
        "details": "See {IERC721-approve}."
      },
      "balanceOf(address)": {
        "details": "See {IERC721-balanceOf}."
      },
      "getApproved(uint256)": {
        "details": "See {IERC721-getApproved}."
      },
      "isApprovedForAll(address,address)": {
        "details": "See {IERC721-isApprovedForAll}."
      },
      "name()": {
        "details": "See {IERC721Metadata-name}."
      },
      "owner()": {
        "details": "Returns the address of the current owner."
      },
      "ownerOf(uint256)": {
        "details": "See {IERC721-ownerOf}."
      },
      "renounceOwnership()": {
        "details": "Leaves the contract without owner. It will not be possible to call `onlyOwner` functions anymore. Can only be called by the current owner. NOTE: Renouncing ownership will leave the contract without an owner, thereby removing any functionality that is only available to the owner."
      },
      "safeTransferFrom(address,address,uint256)": {
        "details": "See {IERC721-safeTransferFrom}."
      },
      "safeTransferFrom(address,address,uint256,bytes)": {
        "details": "See {IERC721-safeTransferFrom}."
      },
      "setApprovalForAll(address,bool)": {
        "details": "See {IERC721-setApprovalForAll}."
      },
      "supportsInterface(bytes4)": {
        "details": "See {IERC165-supportsInterface}."
      },
      "symbol()": {
        "details": "See {IERC721Metadata-symbol}."
      },
      "tokenURI(uint256)": {
        "details": "See {IERC721Metadata-tokenURI}."
      },
      "transferFrom(address,address,uint256)": {
        "details": "See {IERC721-transferFrom}."
      },
      "transferOwnership(address)": {
        "details": "Transfers ownership of the contract to a new account (`newOwner`). Can only be called by the current owner."
      }
    },
    "version": 1
  },
  "userdoc": {
    "kind": "user",
    "methods": {},
    "version": 1
  }
}